:020000040800F2
:10000000780F002049010008CD350008DF280008DE
:10001000E9340008B9020008193E00080000000099
:10002000000000000000000000000000313800085F
:100030002303000800000000CF3500083338000813
:100040006301000863010008630100086301000800
:1000500063010008630100086301000863010008F0
:1000600063010008630100086301000863010008E0
:1000700063010008BD020008C9020008D50200089B
:10008000E1020008ED020008D90100086301000840
:1000900063010008630100086301000825030008EC
:1000A00063010008630100086301000863010008A0
:1000B0006301000863010008630100086301000890
:1000C0006301000863010008630100086D36000841
:1000D00099360008013E00080D3E00086301000843
:1000E0006301000863010008630100086301000860
:1000F0006301000863010008630100086301000850
:100100006301000863010008B538000863010008B6
:100110006301000863010008C1380008CD380008F9
:10012000630100086301000863010008630100081F
:10013000DFF810D000F03EF800480047C54800083E
:10014000AFF30080780F002006488047064800473C
:10015000FEE7FEE7FEE7FEE7FEE7FEE7FEE7FEE777
:10016000FEE7FEE7B13800083101000840EA01036C
:100170009B0703D009E008C9121F08C0042AFAD25D
:1001800003E011F8013B00F8013B521EF9D2704721
:10019000D2B201E000F8012B491EFBD270470022C9
:1001A000F6E710B513460A4604461946FFF7F0FF76
:1001B000204610BD064C074D06E0E06840F0010304
:1001C00094E8070098471034AC42F6D3FFF7B4FF29
:1001D000B00C0108D00C0108014800F096B90000ED
:1001E0003000002070B5044600688168C943C90723
:1001F00017D1816821F00101816000F04FFE0546B2
:100200000AE000BF00F04AFE401B022804D9206823
:100210008068C043C00706D020688068C043C0071C
:10022000F0D0002070BDA06A40F01000A062E06A2B
:1002300040F00100E062012070BD0000F8B500262A
:100240000446009600688168C943C9072DD08168BB
:1002500041F001018160164816490068B0FBF1F0D9
:1002600000E0401E00900028FBD100F017FE05467C
:1002700016E000BF00F012FE401B022810D92068D3
:100280008068C043C0070BD0A06A40F01000A06295
:10029000E06A40F00100E06284F824600120F8BDCB
:1002A00020688068C043C007E4D10020F8BD00008A
:1002B0001800002040420F00FEE70000014800F057
:1002C00027BB000010010020014800F021BB000006
:1002D00054010020014800F01BBB000098010020E1
:1002E000014800F015BB00008C030020014800F01D
:1002F0000FBB0000D003002030B590F8405001241F
:10030000AC40C56B6C60046863604368102B036885
:1003100003D099600068C26030BD9A600068C16017
:1003200030BD7047402000F0A7BC72B6FEE7000069
:10033000F8B500250446009590F8240001280BD05C
:10034000012084F824002046FFF74CFF2046FFF7E9
:1003500075FF060002D050E00220F8BDA06A20F42C
:10036000885040F00200A062022000F035FE2549CE
:100370000968B1FBF0F0400000E0401E009000284A
:10038000FBD12068816841F00801816000F086FDA2
:10039000074608E000F082FDC01B0A2803D9206848
:1003A0008068000715D4206880680007F2D42068B0
:1003B000816841F00401816000F070FD074612E0A1
:1003C00000F06CFDC01B0A280DD92068806840072A
:1003D00009D5A06A20F0020040F01000A06284F865
:1003E00024500120F8BD206880684007E8D4A06A46
:1003F00020F0020040F00100A06284F82450304652
:10040000F8BD00001800002070470000F8B5002477
:10041000009490F824202546012A12D0012280F869
:1004200024204A681F23072A0DD20668776B521EC4
:1004300002EB820293409F430B6893401F43776314
:1004400019E00220F8BD06680D2A0AD2376BD21FC8
:1004500002EB820293409F430B6893401F43376334
:1004600009E0F76A0D3A02EB820293409F430B6862
:1004700093401F43F7620A68072306680A2A0AD3D3
:10048000F7680A3A02EB420293409F438B6893401D
:100490001F43F76008E0376902EB420293409F4335
:1004A0008B6893401F4337610A68102A01D0112AD4
:1004B00020D1124B02689A4217D193681B0219D4BB
:1004C000936843F4000393600968102912D10C4922
:1004D0000C4A0968B1FBF2F101EB8101490000E02F
:1004E000491E00910029FBD104E0816A41F02001FE
:1004F0008162012480F824502046F8BD0024014088
:100500001800002040420F00704770B50446006894
:1005100006684568A90625D5B10723D5A16AC9068D
:1005200003D4A16A41F40071A1628168C1F3424120
:10053000072910D1217B71B9416821F02001416068
:10054000A06A20F48070A062A06AC00403D4A06AEC
:1005500040F00100A0622046FFF7D6FF21686FF04F
:100560001200086028062ED570072CD5A06AC00698
:1005700003D4A06A40F40050A06220688168C1F3EF
:100580000231072909D04168490515D48168C1F3B2
:100590004241072910D1217B71B9416821F08001C6
:1005A0004160A06A20F48050A062A06AC00503D414
:1005B000A06A40F00100A0622046FFF725FF2168F5
:1005C0006FF00C00086068060CD5F0070AD0A06A2E
:1005D00040F48030A062204600F096F821686FF069
:1005E0000100086070BD00002DE9F04104004FF0EB
:1005F00000057FD0A06A002628B9E66284F824604E
:10060000204600F083F82046FFF7ECFDA16AC906FA
:1006100000D420B1A06A40F01000A0626AE0A16A94
:1006200021F4885141F00201A162334923688B42D1
:10063000E16904D1B1F5402F01D14FF40021277BAE
:100640004FF4807C41EA470261680A43A168614532
:1006500008D0012906D0002194F814E0BEF1010F62
:1006600002D00AE06146F7E7C7B1A76A47F0200762
:10067000A762E76A47F00107E7625F6827F4694706
:100680000F435F60236899681C4F3940114399609C
:10069000A16861450BD0012909D00CE0DFF860E0CA
:1006A000A7690EEB47370F4347F40061E5E7218A5E
:1006B0000D05A5F580152168CB6A23F470032B4343
:1006C000CB62216889680F4B1940914208D1E662DC
:1006D000A16A21F0020141F00101A162BDE8F081AF
:1006E000A06A20F0020040F01000A062E06A40F032
:1006F0000100E0620120F1E7003C0140FDF7E1FF6D
:1007000000E0FFFFFE0E1FFF7047000010B586B02F
:100710000021009101910291039100681A498842D9
:100720002FD11A48816941F400718161816901F416
:1007300000710491816941F010018161816901F0CA
:1007400010010491816941F00801816180690324ED
:1007500000F0080004900F20CDE9000469460C4821
:1007600000F096FA0220CDE900046946094800F03D
:100770008FFA00221146122000F0FCFB122000F03C
:10078000EBFB06B010BD0000002401400010024049
:1007900000100140000C014010B590F8211000221B
:1007A000022905D00421816380F82020012010BD9A
:1007B00001680B6823F00E030B6001680B6823F0DF
:1007C00001030B6090F84030C46B012101FA03F380
:1007D000636080F8211080F82020104610BD0000D2
:1007E0002DE9F05F90F821100024022903D00421A4
:1007F0008163012485E001680A6822F00E020A6024
:1008000001680A6822F001020A603F4E3E4FB215AD
:10081000DFF8F4C0DFF8F090DFF8ECA0DFF8E8B024
:10082000DFF8E4E00168783F13011502ACF1640CD5
:10083000A9F15009AAF13C0AABF1280BAEF1140E54
:100840004FF48018B14227D9B9420ED0614512D079
:1008500049451DD0514518D0594518D0714501D191
:10086000424615E0294EB14201D1012210E0274E47
:100870001436B14201D110220AE0244E2836B1428A
:1008800006D0224A3C32914201D11A4600E02A4663
:100890001E49091F0A602BE0B94213D0614517D0E9
:1008A000494522D051451DD059451DD0714501D132
:1008B00042461AE0B14202D14FF0807215E0134E69
:1008C000B14201D1012210E0104E1436B14201D1E3
:1008D00010220AE00D4E2836B14206D00B4A3C32B7
:1008E000914201D11A4600E02A46074980394A6000
:1008F000012180F82110002180F82010416B01B106
:1009000088472046BDE8F09F80000240080402406E
:100910002DE9F05FC16B0A6801680B68046C4FF049
:10092000040808FA04F8844D844E854FDFF814C299
:10093000DFF81492DFF814A2DFF814B2DFF814E243
:1009400018EA020F65D05FEA437862D50A6892061A
:1009500003D40A6822F004020A60DFF8F0814FF441
:100960008062016808F1140813011402414524D97A
:10097000A9420DD0B1420FD0B9421AD0614515D06D
:10098000494515D0514501D1120312E0594501D115
:1009900004220EE0714501D140220AE06D4D14356C
:1009A000A94206D06B4A2832914201D11A4600E092
:1009B00022466749091F0A6029E0A94213D0B142C3
:1009C00015D0B94220D061451BD049451BD05145B7
:1009D00002D14FF4800217E0414502D14FF080620E
:1009E00012E0594501D104220EE0714501D14022A7
:1009F0000AE0584D1435A94206D0564A2832914291
:100A000001D11A4600E022464B4908394A60C16AC2
:100A100071E04FF0020808FA04F818EA020F70D0EB
:100A20005FEA83786DD50A68920606D40A6822F0D8
:100A30000A020A60012180F82110DFF810814FF4CA
:100A40000072016808F1140813011402414524D909
:100A5000A9420DD0B1420FD0B9421AD0614515D08C
:100A6000494515D0514501D1120312E0594501D134
:100A700002220EE0714501D120220AE0354D1435E5
:100A8000A94206D0334A2832914201D11A4600E0E9
:100A900022462F49091F0A6029E0A94213D0B1421A
:100AA00015D0B94220D061451BD049451BD05145D6
:100AB00002D14FF4001217E0414502D14FF000720D
:100AC00012E0594501D102220EE0714501D12022E8
:100AD0000AE0204D1435A94206D01E4A2832914220
:100AE00001D11A4600E02246134908394A60002124
:100AF00080F82010816A00291CD0BDE8F05F08470B
:100B0000FFE70825A540154214D01A0712D50A6838
:100B100022F00E020A6090F84020C36B012101FA16
:100B200002F25A60816380F82110002180F82010C1
:100B3000016BE0E7BDE8F09F080002401C000240A6
:100B40003000024044000240580002406C00024065
:100B5000080402401C04024030B560B11A4B026820
:100B600014219A4209D2194B1344B3FBF1F18900C5
:100B7000016417490AE0012030BD134B5B42134466
:100B8000B3FBF1F1890001640F490839C163022107
:100B900080F82110136843F6F0718B43F0E90114DB
:100BA0002143D0E902452C43214304692143446990
:100BB00021438469214319431160002141630122CB
:100BC00042770177084630BD08040240F8FFFDBFB8
:100BD0000000024070B5044690F82000002501286E
:100BE0000CD0012084F8200094F821600020012E10
:100BF00006D084F820000225284670BD022070BD72
:100C0000022684F82160A0632068066826F00106A9
:100C100006602046FFF770FBE06A00282068016844
:100C200002D041F00E0106E021F0040101602068CD
:100C3000016841F00A0101602068016841F001018A
:100C40000160D9E770B5044600F028F90546601C3C
:100C500002D004480078044400F020F9401BA04270
:100C6000FAD370BD0C000020402802D101490120B8
:100C70000870704728000020044910B50A68024235
:100C800002D00860FFF7F0FF10BD0000140401401F
:100C90002DE9F84FDFF8C8910024A9F1040B234691
:100CA0000F2709F1040AABF1040ED1E00125A5409C
:100CB00006EA0502AA4276D1DFF8A8C14E68A6EB83
:100CC0000C0866452BD00DDC032E34D005DC36B382
:100CD000012E19D0022E2FD11BE0112E16D0122E6C
:100CE0002AD119E0B8F5881F19D006DCB8F5803F85
:100CF00015D0B8F5801F1FD111E0B8F5001F0ED038
:100D0000B8F5041F18D10AE0CB6815E0CB681B1DAD
:100D100012E0CB6808330FE0CB680C330CE08B6833
:100D20002BB1012B4FF0080303D0456104E00423ED
:100D300002E0056100E00023FF2A01D8064601E039
:100D400000F104064FEA840501D9A5F12005D6F883
:100D5000008007FA05FC28EA0C0803FA05F548EAC2
:100D60000508C6F800804D68ED0070D53E4DAE69AF
:100D700046F00106AE61AD6924F0030605F00105F9
:100D800000953A4D06EB050CDCF80850A607360F27
:100D900007FA06F825EA0805DFF8D480404503D1B4
:100DA0004FF0000825E052E0DFF8C880404502D14E
:100DB0004FF001081DE0DFF8C080404502D14FF040
:100DC000020816E0DFF8B480404502D14FF0030876
:100DD0000FE0DFF8AC80404502D14FF0040808E096
:100DE000DFF8A080404502D14FF0050801E04FF048
:100DF000060808FA06F848EA0508CCF808804D68A5
:100E0000D9F80060ED024D4601D5164300E0964347
:100E10002E604D68DAF80060AD02554601D51643E4
:100E200000E096432E604D68DBF80060AD035D4640
:100E300001D5164300E096432E604D68DEF8006051
:100E4000ED03754601D5164300E096432E60641C01
:100E50000A681646E2407FF429AFBDE8F88F00002B
:100E60000804014000001110001002400000014081
:100E700000080140000C0140001001400014014036
:100E800000180140001C01408068084000D001208B
:100E900070470AB1016170470904FBE701488068A7
:100EA000704700000C00002002488168027811445D
:100EB000816070470C000020074810B5016841F0C0
:100EC00010010160032000F075F80F2000F006F813
:100ED00000F024F8002010BD0020024070B50D4D38
:100EE00004464FF47A712878B1FBF0F00A4909689A
:100EF000B1FBF0F000F04DFE48B9102C07D20022F3
:100F00002146501E00F036F800206C6070BD0120B4
:100F100070BD00000C000020180000200C4808B52F
:100F2000816941F001018161816901F00101009154
:100F3000C16941F08051C161C06900F080500090EA
:100F40000448416821F0E06141F00071416008BD52
:100F50000010024000000140002809DB00F01F02E1
:100F6000012191404009800000F1E020C0F800110B
:100F700070470000F0B40E4B1B680C46C3F302230D
:100F8000C3F10705042D00D90425191D072901D235
:100F9000002300E0DB1E012606FA05F1491E214070
:100FA00099409E40761E16403143F0BC02F036BF99
:100FB0000CED00E0064900F0070208684FF6FF0359
:100FC000184040EA0220034A1043086070470000BE
:100FD0000CED00E00000FA0510B501460020284C99
:100FE00004292FD00BDC012930D0022929D100F0AF
:100FF0006BF96168C1F38131491C49001FE0082980
:1010000020D010291DD161682268D20119D51D4850
:10101000C1F38342C903805C0AD56168194AC1F3F0
:101020004041921E515C184AB2FBF1F1484301E085
:10103000164948436168490203D440000321B0FBCC
:10104000F1F010BDBDE8104000F04EB9226AC2F3C5
:101050000121012903D1920701D5C80310BD02293E
:1010600005D1626A920702D549F6404010BD0329B6
:10107000FCD121688903F9D54FF2244010BD00004E
:10108000001002403452000800127A0000093D00AE
:101090002DE9F84305460078354CC00754D0E06987
:1010A0000026C00008D4E06940F08050E061E069AB
:1010B000012600F0805000902E480168C90512D426
:1010C0000168804641F480710160FFF7E7FE074642
:1010D00005E000BFFFF7E2FEC01B642823D8D8F864
:1010E0000000C005F6D5206A10F4407021D0A98810
:1010F00001F4407181421CD0206A1F49012220F472
:1011000040700A6000220A602062C00711D0FFF719
:10111000C5FE074641F2883808E000BFFFF7BEFE73
:10112000C11B414502D90320BDE8F883206A80072E
:10113000F4D5206A696820F44070084320621EB12B
:10114000E06920F08050E0612878800705D560686C
:10115000A96820F44040084360602878C00605D59F
:101160006068696920F48000084360600020DBE764
:101170000010024000700040400442422DE9F04758
:101180000F46050061D0434E306800F00700B842BA
:1011900009D2306820F0070038433060306800F032
:1011A0000700B84251D128683B4C810712D540074F
:1011B00003D5606840F4E06060602878000703D5DC
:1011C000606840F4605060606068A96820F0F000DA
:1011D000084360602878C00728D06868012810D0CC
:1011E0002168022810D0890700292EDA616821F0D1
:1011F000030101436160FFF751FE804641F28839E7
:101200000DE021688903EFE78901EDE7FFF746FE6E
:10121000A0EB0801494502D90320BDE8F0876068CA
:10122000696800F00C00B0EB810FEFD1306800F07E
:101230000700B8420BD9306820F00700384330600F
:10124000306800F00700B84201D00120E5E72878B7
:10125000400705D56068E96820F4E06008436060F5
:101260002878000706D56068296920F4605040EAB4
:10127000C100606000F038F86168084AC1F30311EA
:10128000515CC8400649086006480068FFF726FE22
:101290000020C2E700200240001002404452000833
:1012A0001800002010000020044805490068496823
:1012B000044AC1F30221515CC84070471800002065
:1012C000001002405452000804480549006849686B
:1012D000044AC1F3C221515CC84070471800002085
:1012E00000100240545200080E4A51680E4801F0A6
:1012F0000C03042B11D0082B0FD10C48C1F38343EE
:10130000C903C05C0AD55168084AC1F34041921E26
:10131000515C054A5043B0FBF1F070470449484323
:10132000704700000010024000127A0022520008AC
:1013300000093D002DE9F84F040070D02078C04D21
:10134000C00749D06868C0F38100012807D06868E9
:10135000C0F38100022809D16868C00306D5286857
:10136000800339D560680028E7D035E06068B0F5C3
:10137000803F0BD010B1B0F5A02F11D0286820F419
:1013800080302860286820F4802002E0286840F43B
:1013900080302860606890B1FFF780FD06460AE063
:1013A000286840F480202860F0E700BFFFF776FD52
:1013B000801B642873D828688003F7D50CE0FFF7FA
:1013C0006DFD064605E000BFFFF768FD801B642841
:1013D000F0D828688003F7D420789A4E80074FF021
:1013E00001094FF0000839D5686810F00C0F07D0DC
:1013F0006868C0F38100022809D16868C00306D478
:101400002868800714D52069012808D110E02069D8
:10141000B0B1C6F80090FFF741FD074605E00AE1CC
:10142000FFF73CFDC01B0228C4D828688007F7D509
:101430002868616920F0F80040EAC10028600DE0EA
:10144000C6F80080FFF72AFD074604E0FFF726FDF7
:10145000C01B022823D828688007F7D4207800070B
:101460002CD57948A169D9B1C0F80090FFF716FDD5
:10147000074604E0FFF712FDC01B02280FD8686A78
:101480008007F7D571484FF4FA510068B0FBF1F0CE
:10149000009000BF0098411E0091FAD20EE080E05B
:1014A000C0F80080FFF7FAFC074604E0FFF7F6FCFF
:1014B000C01B022875D8686A8007F7D420784007D7
:1014C00060D5E8690027C00008D4E86940F0805082
:1014D000E861E869012700F0805000905C480168ED
:1014E000C90513D40168834641F480710160FFF798
:1014F000D5FC824606E000BFFFF7D0FCA0EB0A0057
:1015000064284ED8DBF80000C005F5D5E068012856
:101510000AD008B1052813D0286A20F001002862FB
:10152000286A20F0040002E0286A40F001002862E6
:10153000E06841F2883B98B1FFF7B0FC82460BE0CF
:10154000286A40F004002862EEE700BFFFF7A6FC1F
:10155000A0EB0A0159455AD8286A8007F6D50CE055
:10156000FFF79CFC824605E0FFF798FCA0EB0A0120
:1015700059454CD8286A8007F6D41FB1E86920F095
:101580008050E861E06988B36968C1F3810102298C
:1015900044D00228C6F8608004D0FFF77FFC0446E0
:1015A00038E034E0FFF77AFC074604E0FFF776FC0A
:1015B000C01B02282BD828688001F7D4206AB0F518
:1015C000803F05D16868A16820F400300843686056
:1015D000D4E908010843696821F47411084368607C
:1015E000C6F86090FFF75AFC044606E025E000BF0D
:1015F000FFF754FC001B022809D828688001F7D5A2
:101600001BE000BFFFF74AFC001B022802D90320A1
:10161000BDE8F88F28688001F4D40EE00128F7D0E7
:101620006868226A00F48031914204D1616A00F452
:101630007010884201D00120EAE70020E8E70000AE
:101640000010024000004242800442421800002084
:10165000007000407047000038B5044600684268DA
:101660008168C9434B0606D5CB0704D1D3435B063B
:1016700001D4216C05E08B0708D4D3431B0605D4A5
:10168000616C01B02046BDE8304008478B0601D5AB
:101690004B0646D4D3439B0643D44B060AD494F856
:1016A0005130032B3ED0636D43F004036365C36880
:1016B00083680093890609D4616D41F00101616579
:1016C00081680091016821F040010160606D00288F
:1016D00027D02068416821F0E0014160012084F8B2
:1016E0005100900722D02068416821F00301416039
:1016F000104DE06C40B14563E06CFFF771F818B134
:10170000606D40F040006065A06C002809D0456322
:10171000A06CFFF765F8002803D0606D40F0400032
:10172000606538BDC1688068009038BD2046FFF70D
:1017300091FF38BDA536000870B5040009D0606A75
:10174000002540B125616561A56294F8510040B162
:101750000CE0012070BD6068B0F5827FF4D0E561D7
:10176000F2E784F85050204600F040F8022084F858
:1017700051002068016821F040010160A0882189A2
:1017800000F4827001F404410843A18901F400616E
:101790000843217C01F002010843217D01F0010191
:1017A0000843218B01F400710843217F01F03801C7
:1017B000084394F8201001F080010843218D01F4C2
:1017C0000051084321680860A069042101EA104023
:1017D000216848602068C16921F40061C1616565C4
:1017E000012084F85100002070BD00002DE9F04177
:1017F00086B00024009401940294039406464A4D56
:1018000003684A480221032280274FF01008AB42A8
:1018100030D1836943F480538361836903F4805337
:101820000493836943F0040383618069039200F0A9
:1018300004000490A020CDE9000169463C48FFF770
:1018400027FA3D4D3B48C5E902472C616C61AC610C
:10185000EC61C5E900082846FFF77EF908B1FEF7FC
:1018600064FDB5640022114623206E62FFF782FBFF
:10187000232053E0314DAB4252D1C36943F480433E
:10188000C361C36903F480430493836943F008038D
:10189000836180692A4D00F0080004904FF42040D5
:1018A000CDE90001039269462846FFF7F1F94FF4AC
:1018B0008040CDE90004694628460294FFF7E8F924
:1018C0001D4D1C4844351430C5E90004C5E90247E4
:1018D0002C616C61AC612846EC61FFF73DF908B101
:1018E000FEF723FDF5646E62134D124888352830EB
:1018F000C5E902472C616C61AC61EC61C5E9000887
:101900002846FFF729F908B1FEF70FFDB56400225C
:10191000114624206E62FFF72DFB2420FFF71CFBED
:1019200006B0BDE8F0810000003001400010024028
:101930000008014030000240100100200038004043
:10194000000C01402DE9F84F984616468A46044699
:10195000FFF7A4FA814694F8510001281ED1BAF18C
:10196000000F73D0002E71D094F85000012815D0CC
:10197000012784F85070032084F851000025656524
:10198000C4F830A0A686E686A563A587E5876564CA
:101990002564A068B0F5004F03D00CE00220BDE83C
:1019A000F88F2068016821F040010160206801681B
:1019B00041F48041016020680168490603D4016850
:1019C00041F040010160E068B0F5006F606803D04D
:1019D00048B3012E27D047E008B1012E1FD1206B5C
:1019E00021680088C86006E020688168890709D5F9
:1019F000216B0988C160206B801C2063E08E401E33
:101A0000E0860CE0FFF74AFAA0EB0901414503D359
:101A1000B8F1FF3F03D035E0B8F1000F32D0E08ECF
:101A20000028E1D123E0206B21680078087306E0EC
:101A30002068816889070AD5216B09780173206BBA
:101A4000401C2063E08E401EE0860DE02BE0FFF797
:101A500025FAA0EB0901414503D3B8F1FF3F03D0BC
:101A600010E0B8F1000F0DD0E08E0028E0D14A461A
:101A70004146204601F066FE08B120206065A0685E
:101A800030B109E084F8517084F85050032086E7A3
:101A90002068C1688068009084F8517004F8505F35
:101AA00060680028F3D0012079E7000070B5044693
:101AB00090F8510001281CD1C9B1C2B194F850006E
:101AC000012816D0012084F85000032084F851002A
:101AD000002565652163A286E286A56365642564A9
:101AE000A587E587A068B0F5004F04D00DE0012080
:101AF00070BD022070BD2068016821F040010160C6
:101B00002068016841F480410160A16C1748C862F7
:101B1000A16C17488862A16C16480863A06C4563E5
:101B2000E38E2268216B0C32A06CFFF753F830B1C2
:101B3000606D40F01000606584F85050D7E7206871
:101B40000168490603D4016841F04001016084F84E
:101B500050502068416841F0200141602068416890
:101B600041F002014160002070BD0000D73600083E
:101B7000E1360008B536000800680349884202D102
:101B80000249012008707047003001402200002007
:101B9000704710B5401EB0F1807F01D3012010BD09
:101BA0004FF0E02460610F21601702F037F9002048
:101BB000A06107202061002010BD70477047000021
:101BC00070B590F83C20012A2CD0012480F83C40CC
:101BD000022280F83D2003685A689D6822F0700652
:101BE0000A6832435A60104B02689A420ED00F4B7B
:101BF0009A420BD0B2F1804F08D00D4B9A4205D0DB
:101C00000C4B9A4202D00C4B9A4204D1496825F001
:101C100080031943916080F83D40002180F83C101A
:101C2000084670BD022070BD002C01400034014008
:101C30000004004000080040000C004010B5040003
:101C400003D094F83D0010B107E0012010BD002042
:101C500084F83C00204600F01FF8022084F83D0084
:101C6000211D206801F038FE012084F8460084F828
:101C70003E0084F83F0084F8400084F8410084F876
:101C8000420084F8430084F8440084F8450084F856
:101C90003D00002010BD000008B5234A016823481C
:101CA000914208D1C16941F00401C161C06900F0ED
:101CB0000400009008BD1E4A91420ED1C16941F056
:101CC0000801C161C069002200F0080000901146BF
:101CD0003220FFF74FF9322022E0164A91420ED10E
:101CE000C16941F01001C161C069002200F010001B
:101CF000009011463620FFF73DF9362010E00E4ADD
:101D00009142D7D1C16941F02001C161C06900226F
:101D100000F02000009011463720FFF72BF9372004
:101D2000BDE80840FFF718B9000800400010024065
:101D3000000C0040001000400014004090F83D10DE
:101D4000012901D001207047022180F83D1001686F
:101D5000CA6842F00102CA6000680E4988420ED08B
:101D60000D4988420BD0B0F1804F08D00B49884212
:101D700005D00B49884202D00A49884204D18168C3
:101D800001F00701062903D0016841F0010101605B
:101D900000207047002C0140003401400004004046
:101DA00000080040000C00400168CA6822F00102EF
:101DB000CA6001680A6A41F211131A4207D10A6A1D
:101DC0009B101A4203D10A6822F001020A60012125
:101DD00080F83D100020704770B5044690F83C0034
:101DE0000025012817D0012684F83C60022084F8E1
:101DF0003D002068826822F0770222F47F428260F0
:101E00000868502838D00DDC20284FD005DC90B36E
:101E1000102811D14AE0022070BD302846D0402859
:101E20000AD13BE060282FD070280DD0B0F5805F3C
:101E300003D0B0F5005F12D0012584F83D6000208A
:101E400084F83C00284670BDCB68D1E901212068A8
:101E500001F09DFD2068816841F0770109E0CB68C1
:101E6000D1E90121206801F092FD2068816841F4E8
:101E700080418160E1E719E0CA684968206801F0A3
:101E80005BFE5021206806E0CA684968206801F0BE
:101E900064FE6021206801F084FDCEE7CA684968CD
:101EA000206801F049FE40212068F4E722680146DD
:101EB0001046F0E770472DE9F04104460068C66817
:101EC00005694FF00007A90713D5B10711D5F91E11
:101ED000016101202077206880698007204602D0B8
:101EE000FFF7E8FF04E000F0A5F8204600F037F91E
:101EF0002777680716D5700714D521686FF004009E
:101F00000861022020772068806910F4407F204615
:101F100002D0FFF7CFFF04E000F08CF8204600F07D
:101F20001EF92777280715D5300713D521686FF0DC
:101F300008000861042020772068C06980072046D7
:101F400002D0FFF7B7FF04E000F074F8204600F07D
:101F500006F92777E80616D5F00614D521686FF044
:101F600010000861082020772068C06910F4407FC5
:101F7000204602D0FFF79EFF04E000F05BF8204609
:101F800000F0EDF82777E80708D0F00706D02168C1
:101F90006FF001000861204600F03CF9280608D5E2
:101FA000300606D521686FF0800008612046FFF7F3
:101FB00004FE680608D5700606D521686FF040005B
:101FC0000861204600F004FAA8060AD5B00608D534
:101FD00021686FF0200008612046BDE8F041FFF75E
:101FE000EDBDBDE8F081000000B585B00021009195
:101FF00001910291039100680B49884212D10B486C
:10200000816941F0080181618069694600F008003A
:1020100004904FF4607000900220019003900448F7
:10202000FEF736FE05B000BD00080040001002407B
:10203000000C0140704770B5044690F83C00002643
:102040000D4601280FD0012084F83C006AB1042A13
:102050001DD0082A2FD00C2A3FD00126002084F85A
:102060003C00304670BD022070BD206801F0A2FC2B
:102070002068816941F0080181612068816921F04F
:1020800004018161206881692A69114311E0206897
:1020900001F0C0FC2068816941F400618161206821
:1020A000816921F480618161206881692A6941EA3E
:1020B00002218161D2E7206801F0E2FC2068C16959
:1020C00041F00801C1612068C16921F00401C161CA
:1020D0002068C1692A69114311E0206801F004FDFC
:1020E0002068C16941F40061C1612068C16921F4BF
:1020F0008061C1612068C1692A6941EA0221C16128
:10210000ACE710B5040003D094F83D0010B107E02F
:10211000012010BD002084F83C00204600F01EF88D
:10212000022084F83D00211D206801F0D5FB01202C
:1021300084F8460084F83E0084F83F0084F84000AC
:1021400084F8410084F8420084F8430084F8440095
:1021500084F8450084F83D00002010BD70477047AA
:1021600010B50446022249B104290ED0082913D023
:1021700094F84100012816D0012010BD94F83E00CB
:102180000128F9D184F83E200FE094F83F0001289F
:10219000F2D184F83F2008E094F840000128EBD108
:1021A00084F8402001E084F841200122206801F0F9
:1021B000E1FB13492068134A884201D0904203D1C1
:1021C000436C43F400434364206888420DD090423E
:1021D0000BD0B0F1804F08D00B49884205D00B4995
:1021E000884202D00A49884204D1816801F007017F
:1021F000062903D0016841F001010160002010BDF3
:10220000002C014000340140000400400008004060
:10221000000C00402DE9F047624A01680025126871
:102220000126614C914249D1A178604A491CC9B24A
:10223000A170042902D0052902D003E0967001E0C4
:102240009570A5705A494A78012A08D1E278521C43
:10225000D2B2E2701E2A02D14D70E5708E700A78FB
:102260003AB92279521CD2B22271642A01D1257165
:102270000E70504991F86F2042B96279521CD2B267
:102280006271322A02D1657181F86F60A279521CA5
:10229000D2B2A271322A04D0642A07D0962A09D079
:1022A0000CE081F8735081F8716007E001F8715F0C
:1022B0004E7003E001F8725F4E70A571394A0168F3
:1022C0004832126891420AD13B498A783AB10A7879
:1022D000521CD2B20A70082A01D38D70CE703149D7
:1022E000006890310968884228D12078DFF8CCA0B6
:1022F000DFF8CC90012815D1002204215046FEF7CA
:10230000C8FD002208214F464846FEF7C2FD0022C4
:1023100010213846FEF7BDFD002220213846FEF789
:10232000B8FD2570DFF89C8098F80000012807D0E0
:102330006078012802D12089401C2081BDE8F08707
:1023400021496670208909888842F4D31F4F387864
:1023500008B1002200E0012204215046FEF799FD59
:10236000387808B1002200E0012208214846FEF733
:1023700090FD387808B1002200E001221021484683
:10238000FEF787FD387808B1002200E00122202105
:102390004846FEF77EFD267088F80050258165705E
:1023A000CCE7000024020020020000202C0A0020BC
:1023B0001C000020020B0020360A002000140140FF
:1023C000000C0140280000202A0000202C000020E2
:1023D0007047704770470000F8B501680446086808
:1023E000CA684B6910F00F0F4FF0000559D003F089
:1023F000010602F49077374365D0C10705D0D105B7
:1024000003D5616C41F001016164410705D5D9072D
:1024100003D0616C41F002016164810705D5D907E1
:1024200003D0616C41F004016164010707D502F03B
:102430002001314303D0616C41F008016164616C9B
:1024400000293AD0800604D5900602D5204601F036
:10245000C5FB20684069616CC0F38010090700D497
:1024600060B3204601F093FB20684069400621D507
:102470002068143050E8001F21F0400140E80012AD
:10248000002AF5D1E06BA8B16D494163E06BFEF71E
:10249000A7F9002811D0E06B416B01B0BDE8F04016
:1024A000084783060FD593060DD52046BDE8F840B2
:1024B00001F094BB2046FFF78DFFF8BD2046FFF7E3
:1024C00089FF6564F8BD266B2023012E7CD1C606EA
:1024D0007AD5D60678D508684868009048694FF0E4
:1024E0000206400640D5E16B086840680004000C15
:1024F000E8D0A28D8242E5D9E085886920282DD0D8
:1025000020680C3050E8001F21F4807140E8001270
:10251000002AF5D12068143050E8001F21F0010195
:1025200040E80012002AF5D12068143050E8001F5E
:1025300021F0400140E80012002AF5D184F8423031
:10254000256320680C3050E8001F21F0100140E89E
:102550000012002AF5D1E06BFEF71EF96663A08D2C
:10256000E18D401A81B22AE0A08DE18D401A81B23E
:10257000E08D0028A6D00029A4D022680C3252E8B1
:10258000000F20F4907042E80007002FF5D120687A
:10259000143050E8002F22F0010240E80027002FFD
:1025A000F5D184F84230256320680C3050E8002FC4
:1025B00022F0100240E80023002BF5D1666320468C
:1025C000FFF707FFF8BDFFE705062BD5150629D550
:1025D00094F841002128F5D1A068B0F5805F01D1C1
:1025E0002069B0B1206A411C2162216800784860EE
:1025F000E08C401E0004000CE084E3D12068C16838
:1026000021F08001C1602068C16841F04001C160D3
:10261000D8E7206A0088C0F308004860206A801C60
:102620002062E5E74006CDD55006CBD5CA682046E6
:1026300022F04002CA6084F8413000F04FF9C1E74F
:102640007F3B000870B5040004D094F841000025D9
:1026500010B106E0012070BD84F84050204600F023
:1026600023F8242084F841002068C16821F4005137
:10267000C160204601F014FB2068016921F49041FB
:1026800001612068416921F02A0141612068C16827
:1026900041F40051C1606564202084F8410084F851
:1026A00042006563002070BDF0B585B00024009441
:1026B0000194029403940646414F03684148022165
:1026C0000322414DBB4226D1836943F48043836199
:1026D000836903F480430493836943F004038361B3
:1026E0008069039200F0040004900802CDE9000123
:1026F00069462846FEF7CCFA2815CDE9000469465C
:1027000028460294FEF7C4FA002211462520FEF75F
:1027100031FC252050E02D4FBB424FD1C36943F41B
:102720000033C361C36903F400330493836943F046
:10273000040383618069039200F004000490042084
:10274000CDE9000169462846FEF7A2FA0820CDE946
:102750000004694628460294FEF79AFA1D4D1C486B
:102760008027C5E90004C5E902472C616C61AC61B2
:102770002846EC61FEF7F0F908B1FDF7D6FDF563E8
:102780006E62144D12484435143001C5102091C5B5
:10279000104845F8104944306C61AC61EC61FEF7BB
:1027A000DBF908B1FDF7C1FDB56300221146262013
:1027B0006E62FEF7DFFB2620FEF7CEFB05B0F0BD14
:1027C0000038014000100240000801400044004071
:1027D0006C0002408C03002090F84230202B01D086
:1027E0000220704721B11AB10023036301F0B4BA8B
:1027F0000120704700680E49884218D10D48C17801
:10280000012914D00C49096849684378021D99547C
:1028100041780023491CC9B241700370012901D1DC
:1028200001238370114401220348FFF7D5BF70478D
:1028300000440040360A0020440300202DE9F843FC
:10284000044690F84100984616460D46202802D0CE
:102850000220BDE8F88385B17EB1002060642120AC
:1028600084F84100FEF71AFBA6848146E684A0683E
:102870002027B0F5805F02D003E00120E9E720695E
:1028800010B12E4600250EE000260CE080212046E7
:1028900001F07DFAA8B9C6B116F8010B21684860AD
:1028A000E08C401EE084E08C4B464FF00002CDF8F7
:1028B00000800028EAD14FF04001204601F067FA7D
:1028C00040B184F841700320C3E735F8020BC0F330
:1028D0000800E3E784F841700020BAE77047FEE79C
:1028E0002DE9F04104461D4616460F462A2000F009
:1028F00003FB204600F01CFB304600F019FB2B20A8
:1029000000F0FAFA384600F013FB284600F010FBFE
:10291000BDE8F0412C2000F0EFBA000070B5040AC9
:10292000C5B20021EF2340F23F120846FFF7D8FF5F
:102930000E4900204FF4407201F8104001EB4003B3
:10294000401C80B25D709042F6D3012240210848BD
:10295000FEF79FFA00244FF4C0652946034800F0B3
:10296000ABF9641CA4B2642CF7D370BD2C04002016
:10297000000801402DE9FE4F4FF00008141A4746A9
:10298000454699421FD1FFF7ABFF0C980C9A010AFC
:102990003148D2B206E000BF00F8151000EB450345
:1029A0006D1C5A70AC42F7D8012240212B48FEF72B
:1029B00070FA4FF6FF7000EA440103B02648BDE804
:1029C000F04F00F079B9CDE900105E1A4FF0FF30FA
:1029D000002C02DD4FF0010102E003D14FF00001B5
:1029E0008B4602E08346C4F10004002E02DD4FF066
:1029F000010002E003D14FF00000824602E082466F
:102A0000C6F10006B44201DD254600E03546681CEB
:102A10004FF0000902901AE000980C9A81B20198D8
:102A200080B200F01DF8A0443744A84505DD0199A7
:102A3000A8EB050801EB0B000190AF4203DD009805
:102A40007F1B5044009009F101001FFA80F90299A0
:102A50008945E1DDBDE8FE8F2C040020000801401F
:102A600010B514460B460246FFF73AFF2046BDE874
:102A7000104000F05DBA00002DE9F047141A5F1A0B
:102A8000641C7F1C7C43002564004FF4C068089ED2
:102A9000444502D9A4F5C0654446FFF721FF370A33
:102AA000DFF84C90DFF84CA0F6B20020494606E073
:102AB00001F8107001EB4002401C567080B2B0EB80
:102AC000540FF5D3012240215046FEF7E2F9A1B29E
:102AD000074800F0F1F8002D07D0454502D9A5F5CB
:102AE000C065E2E72C460025DFE7BDE8F08700007F
:102AF0002C0400200008014010B56A4C002210216F
:102B00002046FEF7C6F90C20FEF79CF801221021A2
:102B10002046FEF7BEF90C20FEF794F8112000F0D5
:102B2000EBF90C20FEF78EF8362000F0E5F9A02036
:102B300000F0F0F93A2000F0DFF9652000F0EAF942
:102B4000B22000F0D9F90C2000F0E4F90C2000F0DC
:102B5000E1F9002000F0DEF9332000F0DBF933204A
:102B600000F0D8F9B72000F0C7F9722000F0D2F9D0
:102B7000BB2000F0C1F93D2000F0CCF9C02000F0EE
:102B8000BBF92C2000F0C6F9C22000F0B5F90120F5
:102B900000F0C0F9C32000F0AFF9192000F0BAF935
:102BA000C42000F0A9F9202000F0B4F9C62000F0FC
:102BB000A3F90F2000F0AEF9D02000F09DF9A42079
:102BC00000F0A8F9A12000F0A5F9E02000F094F9A8
:102BD000D02000F09FF9042000F09CF90D2000F0B7
:102BE00099F9112000F096F9132000F093F92B20A9
:102BF00000F090F93F2000F08DF9542000F08AF9A0
:102C00004C2000F087F9182000F084F90D2000F026
:102C100081F90B2000F07EF91F2000F07BF92320C2
:102C200000F078F9E12000F067F9D02000F072F9A7
:102C3000042000F06FF90C2000F06CF9112000F076
:102C400069F9132000F066F92C2000F063F93F20A9
:102C500000F060F9442000F05DF9512000F05AF9CD
:102C60002F2000F057F91F2000F054F91F2000F02A
:102C700051F9202000F04EF9232000F04BF92120DB
:102C800000F03AF9292000F037F90021EF2340F253
:102C90003F120846FFF724FEBDE810404FF6FF70D4
:102CA000FFF73CBE001001400246012000E0504307
:102CB000491EC9B2FBD2704700F0DEBC00F0E4BC94
:102CC0002DE9F84F203AD6B21C46DDE90A984FF4B8
:102CD000A072A2EB5402824254D3C4F1F0028A42A1
:102CE00050DB0A19521E93B200EB5402521E92B2EC
:102CF000FFF7F6FD102C17D0202C15D00C2C43D04C
:102D0000182C3FD1364906EB46004FF0300B00241B
:102D100001EB001AE0071AF8046051D004270025DF
:102D200030064FD548464EE0600700D0012000EB4A
:102D3000D4006108484300F0FF0A2A48002500EB50
:102D4000061B00F5BE5000EBC610009018E0102CDA
:102D500008D0202C16D10098465D0027300604D5F7
:102D6000484603E01BF80560F7E7404600F0E0F84E
:102D700070067F1C060EFFB2082FEFD36D1CEDB25C
:102D80005545E4D3BDE8F88F174806EB46014FF0F0
:102D90000C0A002400EB810700253E5D300601D5BA
:102DA000484600E0404600F0C3F870066D1C060E71
:102DB000EDB2062DF2D3641CE4B25445ECD3E1E746
:102DC0000827ACE7404600F0B3F870066D1C060E0D
:102DD000EDB2BD42A4D3641CE4B25C459AD3D1E702
:102DE00014CA000824C40008B0BF00082DE9FF4F32
:102DF00083B00026DDE911A9DDF840B01D4680460C
:102E000034464FEA5B0726E0281B401EC1B20A2069
:102E1000FFF74AFF0599B1FBF0F00A21B0FBF1F290
:102E200001FB120026B9691E8C4201DA38B1012675
:102E30003030C2B207FB048080B25B4604E007FB7F
:102E4000048080B25B462022CDE900A90499FFF7F7
:102E500037FF641CE4B2AC42D6D307B0BDE8F08FB4
:102E60002DE9FC5F044600F0FF0910190D46DDE96D
:102E70000CA61FFA80F8581987B2DDF83CB013E0B1
:102E8000444503D305EB0A004C4685B2BD4210D23F
:102E90000E99CDE9001B534629462046FFF710FF47
:102EA00004EB5A0084B2761C3278A2F120005E282E
:102EB000E6D9BDE8FC9F000070B50244DDE904548A
:102EC000B2F5A07F15D80B44F02B12D85B1E521E12
:102ED0009BB292B2FFF704FD012240210548FDF7A5
:102EE000D8FF21462846FFF7E9FEBDE8704002F012
:102EF00049B870BD0008014001B5002240210448D6
:102F0000FDF7C7FF01216846FFF7D6FE08BD0000A8
:102F10000008014001B5012240210448FDF7B9FF36
:102F200001216846FFF7C8FE08BD00000008014007
:102F300008B500210091010A8DF800108DF80100FC
:102F4000012240210348FDF7A4FF02216846FFF754
:102F5000B3FE08BD0008014030B503464FF6FF70D0
:102F60004AF201041A7850400022C50702D084EAD0
:102F7000500000E04008521CD2B2082AF5D3491E86
:102F80005B1C11F0FF01EDD130BD0000FEB5002546
:102F900027480095019525490295016089158160B2
:102FA000057301240475052606614FF46021456010
:102FB000C0E90641FDF718FB08B1FDF7B6F9092095
:102FC0008DE8310069461A48FDF720FA08B1FDF78F
:102FD000ACF90A2000900220019069461448FDF7E0
:102FE00015FA08B1FDF7A1F90B200090032001901C
:102FF00069460F48FDF70AFA08B1FDF796F90C206B
:1030000000900420019069460948FDF7FFF908B1D6
:10301000FDF78BF90D20CDE9000669460448FDF760
:10302000F5F9002801D0FDF780F9FEBD002401402C
:1030300030000020194808B5416941F001014161A3
:103040004069002200F00100009011460D20FDF7BC
:1030500091FF0D20FDF780FF002211460E20FDF7A5
:1030600089FF0E20FDF778FF002211460F20FDF7A3
:1030700081FF0F20FDF770FF002211461020FDF7A1
:1030800079FF1020FDF768FF002211461120FDF79F
:1030900071FFBDE808401120FDF75EBF001002403F
:1030A0002DE9F04F85B00024524800940194029419
:1030B0000394816941F010018161816901F010017F
:1030C0000491816941F020018161816901F0200151
:1030D0000491816941F004018161816901F0040179
:1030E0000491816941F0080181618069002200F04A
:1030F0000800049049F642113F48FDF7CAFE41F628
:103100001049002249463D48FDF7C3FE40F63C4ABF
:10311000002251463A48FDF7BCFE4FF4805B012285
:1031200059463748FDF7B5FE002204213548FDF722
:10313000B0FE49F6021001250226CDE90005CDE9D1
:10314000024669462C48FDF7A3FD1020CDE9000496
:10315000694629480294FDF79BFD40274FF003087C
:10316000CDF80C800097CDE9015469462248FDF75F
:103170008FFDCDF800900396CDE9015469461F48B4
:10318000FDF786FD4FF47870CDE9000469461B48D1
:103190000294FDF77DFDCDF800A00396CDE9015422
:1031A00069461748FDF774FDCDF800B0CDF80C80E6
:1031B000CDE9015469461248FDF76AFD0420CDE9C6
:1031C0000005CDE9024669460E48FDF761FD0E484F
:1031D0000097CDE9010469460948FDF759FD002231
:1031E00011461720FDF7C6FE1720FDF7B5FE05B006
:1031F000BDE8F08F001002400008014000100140BF
:10320000000C01400014014000002110104810B5CE
:103210000E4901604FF482714160002102228160F9
:10322000C0E903121202C0E905120822C0E9072111
:10323000416281620A21C162FEF77EFA002803D052
:10324000BDE81040FDF771B810BD0000003001402E
:10325000600000200F4810B50D4901604FF48271E5
:10326000416000218160C1604FF400720161C0E9DA
:103270000512C1610162416281620A21C162FEF7E9
:103280005BFA002803D0BDE81040FDF74EB810BD32
:1032900000380040B800002030B58DB000250795FB
:1032A000089509950A950B951C2168460C95FCF725
:1032B00076FF344C324820604720C4E9010540F2D3
:1032C000E730C4E903052046A561FEF7B7FC08B165
:1032D000FDF72BF84FF48050079007A92948FEF717
:1032E0007BFD08B1FDF721F82648FEF70AFF08B17B
:1032F000FDF71BF80B950BA922480C95FEF760FC17
:1033000008B1FDF712F86020CDE90005029504220E
:1033100069461C480495FEF78EFE08B1FDF705F8D6
:103320002068816921F4006181610822694615489D
:10333000FEF781FE08B1FCF7F8FF2068C16921F0B3
:103340000801C1610C2269460E48FEF774FE08B1FF
:10335000FCF7EBFF2068C16921F40061C161042121
:103360000848FEF7FDFE08210648FEF7F9FE0C218D
:103370000448FEF7F5FE0348FEF736FE0DB030BDFB
:1033800000080040DC01002010B586B0002417487A
:1033900000940194029403940494134905940160E9
:1033A0004721C0E9011442F20F71C0E9031484619E
:1033B000FEF744FC08B1FCF7B8FF4FF480500090D2
:1033C00069460A48FEF708FD08B1FCF7AEFF049411
:1033D00004A906480594FEF7F3FB002801D0FCF78A
:1033E000A4FF06B010BD0000000C00402402002025
:1033F0001CB500240E4800940C490194016047213B
:10340000C0E9011440F2E7318461C160FEF716FCA7
:1034100008B1FCF78AFF0094694605480194FEF75D
:10342000CFFB002801D0FCF780FF1CBD001000403E
:103430006C0200201CB500240E4800940C49019435
:1034400001604721C0E9011409218461C160FEF7D0
:10345000F5FB08B1FCF769FF009469460548019443
:10346000FEF7AEFB002801D0FCF75FFF1CBD00009B
:1034700000140040B40200200C4810B50A49016055
:103480004FF4E1314160002181600C22C160C0E94C
:1034900004128161C161FFF7D5F8002803D0BDE8AF
:1034A0001040FCF742BF10BD00380140FC02002074
:1034B0000C4810B50A4901604FF4E1314160002128
:1034C00081600C22C160C0E904128161C161FFF713
:1034D000B9F8002803D0BDE81040FCF726BF10BDA6
:1034E0000044004044030020FEE7000030B5174CC4
:1034F000E078012828D10025E5706078801EC1B2EF
:10350000201DFFF729FD01466278A01C10440088A9
:1035100040BA814218D1207917280AD1607903284E
:1035200002D004280FD102E000F012F801E000F010
:103530002FF82079182801D100F034F820791928C3
:1035400001D100F039F8657030BD0000360A002066
:1035500070B503210B4A0C4B0C4D002010B1012813
:1035600009D103E0541864791C6004E054186679AA
:103570006E7224795C60891C401C80B2C9B2052837
:10358000ECD370BD360A0020140400202C0A002061
:1035900002480349007A81F860007047360A00202B
:1035A000020B002002480349007A81F8610070474D
:1035B000360A0020020B002002480349007A81F8F5
:1035C00062007047360A0020020B0020FEE77047B9
:1035D0002DE9FF4F87B0914683464FF0010A002640
:1035E00006EB860000EBC6011F4899F8002010F892
:1035F0001130934230D100EB410199F801004A7833
:10360000824229D118226846891CFCF7AFFD0024AC
:10361000684600EB44001DF814104FF6FF7247781F
:1036200002EA81110F4300250BEB0408C5F10B00E2
:1036300027FA00F0C00707D008981FFA88F128443D
:1036400080B2149AFFF70CFA6D1CEDB20C2DEDD37D
:10365000641CE4B20C2CDBD3761CB6B25645BFD347
:103660000BB0BDE8F08F0000960C01080148FDF793
:10367000F3BF0000600000200A460146FF23014816
:10368000FEF760B9600000200A4601460148FEF7D7
:103690000DBA0000600000200148FDF7DDBF00000A
:1036A000B800002010B5406A0021C187C186FDF72F
:1036B000D1FF10BD10B5406A01684A6822F00302CC
:1036C0004A60416D41F010014165012180F85110BF
:1036D000FDF7C0FF10BD10B5406AFEF759FA10BDE6
:1036E00038B50546446AFDF7D9FB024628680068EC
:1036F000800623D42068416821F0200141602068C1
:10370000416821F0020141606421204600F01AF86E
:1037100018B1606D40F020006065A068002118B904
:103720002068C26880680090E186012084F851001A
:10373000606D18B12046FDF78DFF38BD2046FEF7BD
:103740001BFA38BDF8B515460E460B4600920446E6
:103750000122022100F010F840B9334600228021F6
:103760002046009500F008F8002804D0606D40F075
:10377000200060650320F8BD2DE9F8431E46914600
:1037800088460446089DFDF789FB401B351AFDF766
:1037900085FB074625480068C0F3CB30684338E016
:1037A000701C37D0FDF77AFBC01BA84203D215B1BD
:1037B000009860B32CE02068416821F0E00141608E
:1037C0006068B0F5827F0BD1A068B0F5004F02D0E1
:1037D000B0F5806F04D12068016821F040010160DC
:1037E000A06AB0F5005F09D12068016821F400519A
:1037F00001602068016841F400510160012084F8F3
:103800005100002084F850000320BDE8F883002513
:10381000401E00902068816838EA010004D0002131
:103820004945BDD10020F0E70121F9E7180000204B
:103830007047FDF739BB30B595B028216846FCF7D5
:10384000AEFC14210AA8FCF7AAFC18210FA8FCF76B
:10385000A6FC01210804CDE90010002502950224F0
:103860000491CDE907404FF4E01009906846FDF758
:1038700061FD08B172B6FEE70AA90F2081E83100A8
:103880004FF48060CDE90D0502210AA8FDF776FC12
:1038900008B172B6FEE74FF4004011900F940FA8E4
:1038A000FDF7F6FB002801D072B6FEE715B030BD7B
:1038B000704700000148FEF7FEBA00002402002015
:1038C0000148FEF7F8BA00006C0200200148FEF73C
:1038D000F2BA0000B4020020F0B50268204C214D7D
:1038E000214E224F224B4FF0804CA04209D09842EB
:1038F00007D0604505D0A84203D0B04201D0B842FD
:1039000004D122F0700E4A6842EA0E02A04209D0A9
:10391000984207D0604505D0A84203D0B04201D0FC
:10392000B84203D122F44075CA682A434D6922F097
:1039300080022A4302608A68C2620A688262A042E8
:1039400001D0984201D109690163012141610169F6
:10395000C90703D0016921F001010161F0BD000038
:10396000002C01400004004000080040000C004012
:103970000034014010B501F01F030121046A994091
:103980008C430462016A9A401143016210BD10B574
:10399000846842EA032224F47F440A43224382607B
:1039A00010BD826822F070020A4342F00701816074
:1039B00070470000F0B5036A026A22F00102026259
:1039C00042688469124E24F073050C682C4323F07E
:1039D00002058B682B430D4DA84201D0B04205D1A2
:1039E00023F00807CB683B4323F00403A84201D02F
:1039F000B04205D14D6922F4407215438A692A43C9
:103A000042608461496841630362F0BD002C01405B
:103A100000340140F0B5026A036A23F01003036228
:103A2000436884690D6824F4E64444EA05248D68FB
:103A300022F0200242EA05120F4D104EA84201D09A
:103A4000B04206D1CF6822F0800242EA071222F08B
:103A50004002A84201D0B04207D14D6923F440632F
:103A600043EA85038D6943EA8503436084614968BD
:103A700081630262F0BD0000002C0140003401406F
:103A8000F0B5026A036A23F4807303624368C46971
:103A900022F4007224F073050C68124E2C438D68DA
:103AA00042EA05220E4DA84201D0B04206D1CF68AD
:103AB00022F4006242EA072222F48062A84201D086
:103AC000B04207D14D6923F4405343EA05138D6991
:103AD00043EA05134360C4614968C1630262F0BDF3
:103AE000002C01400034014030B5046A026A22F41F
:103AF000805202624268C3690D6823F4E64343EAD8
:103B000005238D6824F4005444EA0534084DA84286
:103B100002D0084DA84204D14D6922F4804242EA05
:103B200085124260C36149680164046230BD0000CF
:103B3000002C01400034014010B5036A046A24F0EF
:103B400001040462846924F0F00444EA021423F0BE
:103B50000A020A438461026210BD10B5036A046A56
:103B600024F010040462846923F0A00324F4704458
:103B700044EA023243EA01118261016210BD10B5CC
:103B8000406A0021C185C184FEF724FC10BD016894
:103B90000C3151E8002F22F4907241E80023002BF1
:103BA000F5D10168143151E8002F22F0010241E8FB
:103BB0000023002BF5D1016B012909D101680C31DB
:103BC00051E8002F22F0100241E80023002BF5D12C
:103BD000202180F8421000210163704708B590F859
:103BE0004210222901D0022008BD82684FF4805380
:103BF0009A4201D1016921B1816A9A421BD04AB12E
:103C00000AE00268816A5268C2F308020A80816A87
:103C1000891C08E0026972B10268526802F07F02F2
:103C20000A70816A491C8162C18D491E0904090C10
:103C3000C18503D01BE002685268F1E70168CA68D9
:103C400022F02002CA600168CA6822F48072CA6049
:103C500001684A6922F001024A61202180F842107D
:103C600000214163026B012A03D0FEF7C3FD00204F
:103C700008BD016301680C3151E8002F22F01002E9
:103C800041E80023002BF5D101680A68D20602D56D
:103C90000A6849680091818DFEF79BFBE7E7000009
:103CA00070B5044600680169E26821F4405111438F
:103CB00001612169A0680843616908432168CA68F5
:103CC00041F20C639A430243CA6020684169A269C9
:103CD00021F44071114341611E492068884202D19C
:103CE000FDF7F2FA01E0FDF7DFFA00EBC00101EBAE
:103CF0000012606864218000B2FBF0F3B3FBF1F3C3
:103D00006FF018067343B2FBF0F5B2FBF0F605EB6B
:103D10008305322303EB0515B5FBF1F5B6FBF1F690
:103D200005F0F00505EB0615B2FBF0F6B2FBF0F07E
:103D3000B0FBF1F06FF01802504306EB800003EB8C
:103D40000010B0FBF1F0216800F00F0028448860FB
:103D500070BD00000038014081628285C28500216B
:103D60004164222180F84210016921B10168CA68CA
:103D700042F48072CA6001684A6942F001024A61F5
:103D80000068C16841F02001C160002070472DE942
:103D9000F843984617460D460446089E24E0701CDA
:103DA00022D0FDF77BF8A0EB0800B0421AD8CEB1C4
:103DB0002068C168490717D5802D15D0402D13D034
:103DC0000168C94309070FD40168002540680090C5
:103DD0002046FFF7DCFE0820606484F84050012094
:103DE000BDE8F8830320FBE72068006835EA00009F
:103DF00004D00020B842D2D00020F1E70120F9E73A
:103E00000148FEF7E9BA0000FC0200200148FEF775
:103E1000E3BA000044030020FEE770470907090EDB
:103E2000002804DB00F1E02080F80014704700F067
:103E30000F0000F1E02080F8141D704702E008C870
:103E4000121F08C1002AFAD170477047002001E014
:103E500001C1121F002AFBD17047000010B5962047
:103E600000F082F9BDE8104000224FF400610148E3
:103E7000FDF70FB8000801400122D1020148FDF70B
:103E800008B800000008014010B5114C2046217A06
:103E9000407A05291BD2DFE801F003070B0F13005E
:103EA000BDE8104000F016B8BDE8104000F080B842
:103EB000BDE8104000F0EAB800F00CF8607AF3E7D3
:103EC00000F008F8607A00F073F8607AF0E710BD4F
:103ED0002C0A00207CB5354E4FF4FD6406F5FD65D7
:103EE000062852D2DFE800F0030A1B2A3952CDE936
:103EF000006416232E22372155204DE0CDE90054D1
:103F000016232E22372155201EE000BFFEF7D4FFD6
:103F1000CDE9005416232E223721DC2033E0CDE9F1
:103F2000005416232E2237215520FEF7C5FFCDE978
:103F3000005416232E22372191201CE0CDE9006485
:103F400016232E2237215520FEF7B6FFCDE9006457
:103F500016232E2237219120D8E7CDE900641623BD
:103F60002E2237215520FEF7A7FFCDE90064162346
:103F70002E2237219120FEF79FFFCDE90064162302
:103F80002E223721DC20FEF797FF7CBDCDE90054BF
:103F900016232E2237215520FEF78EFFCDE900543F
:103FA00016232E2237219120B0E70000B495000897
:103FB0007CB5354E4FF4FD6406F5FD65062852D2FA
:103FC000DFE800F0030A1B2A3952CDE9006416230A
:103FD0002E22612155204DE0CDE9005416232E22DA
:103FE000612155201EE000BFFEF766FFCDE90054B9
:103FF00016232E226121DC2033E0CDE90054162364
:104000002E2261215520FEF757FFCDE900541623DB
:104010002E22612191201CE0CDE9006416232E227E
:1040200061215520FEF748FFCDE9006416232E22BA
:1040300061219120D8E7CDE9006416232E22612169
:104040005520FEF739FFCDE9006416232E226121A9
:104050009120FEF731FFCDE9006416232E22612165
:10406000DC20FEF729FF7CBDCDE9005416232E226B
:1040700061215520FEF720FFCDE9005416232E22A2
:1040800061219120B0E70000B49500087CB5354E61
:104090004FF4FD6406F5FD65062852D2DFE800F016
:1040A000030A1B2A3952CDE9006416232E228A21E5
:1040B00055204DE0CDE9005416232E228A215520AB
:1040C0001EE000BFFEF7F8FECDE9005416232E22B5
:1040D0008A21DC2033E0CDE9005416232E228A21E8
:1040E0005520FEF7E9FECDE9005416232E228A2141
:1040F00091201CE0CDE9006416232E228A21552050
:10410000FEF7DAFECDE9006416232E228A219120E3
:10411000D8E7CDE9006416232E228A215520FEF728
:10412000CBFECDE9006416232E228A219120FEF7D2
:10413000C3FECDE9006416232E228A21DC20FEF77F
:10414000BBFE7CBDCDE9005416232E228A215520CA
:10415000FEF7B2FECDE9005416232E228A219120CB
:10416000B0E70000B495000842F2283148434FF010
:10417000E02148610020886101220A610A69D307B1
:1041800001D0D203FAD508618861704770B50EA0DE
:104190000F4ED0E90045012202213046FCF779FE9E
:1041A0000520FFF7E1FF0B4808210460456000F09F
:1041B0001DFC002202213046FCF76BFEBDE870407A
:1041C0000520FFF7D1BF0000170400000003FDB277
:1041D00000080140020B002070B50EA00F4ED0E980
:1041E0000045012202213046FCF753FE0520FFF76F
:1041F000BBFF0B4808210460456000F0F7FB00227C
:1042000002213046FCF745FEBDE870400520FFF76F
:10421000ABBF000018040000000302B20008014018
:10422000020B002070B50EA00F4ED0E90045012210
:1042300002213046FCF72DFE0520FFF795FF0B48C5
:1042400008210460456000F0D1FB002202213046C5
:10425000FCF71FFEBDE870400520FFF785BF00009A
:10426000190400000003D3B300080140020B002032
:1042700010B50B4C94F87100012801D1FFF786FFAF
:1042800094F87200012801D1FFF7A6FF94F873009B
:10429000012803D1BDE81040FFF7C4BF10BD0000E6
:1042A000020B002070B50EA00F4ED0E90045012290
:1042B00002213046FCF7EDFD0520FFF755FF0B48C6
:1042C00008210460456000F091FB00220221304685
:1042D000FCF7DFFDBDE870400520FFF745BF00009B
:1042E000170300000002FDC600080140020B002079
:1042F0002DE9FF4740F2CC617A48CDE900011E2349
:104300001D2203210D20FEF7D7FD4FF4E161764811
:10431000CDE900011E231A4603213720FEF7CCFD0C
:10432000724C10264FF6306720880096CDE9017058
:10433000022319220D21E920FEF758FD6C4D6DA2D4
:10434000FF212888009023881120FFF741F9208859
:104350000096CDE90170022341220D214FF48970AE
:10436000FEF744FD23882A8863A10C208DE80F0006
:1043700003460246102140F22710FEF771FDDFF8D8
:104380007C8198F80800FFF77FFD20882988009637
:10439000CDE901105A4F4FF4877A032317F8602FA5
:1043A00039215046FEF722FD288800904FF4967977
:1043B000238850A249463C20FFF70AF92088298823
:1043C0000096CDE901107A78032363215046FEF769
:1043D0000DFD28880090238846A249466720FFF7F4
:1043E000F7F8208829880096CDE90110BA780323D0
:1043F0008D215046FEF7FAFC2888009023883DA2C4
:1044000049469020FFF7E4F898F8080000F00CFC0B
:104410004FF400683B49CDE9001820231A46C1211A
:104420001920FEF749FD2088298818260096CDE935
:104430000110354F0323C3213F207A68FEF7D6FCD5
:1044400021882888CDE9000118232522C32167206F
:10445000FEF736FC2D49CDE9001820231A46C1216C
:104460008A20FEF729FD208829880096CDE90110D1
:104470000123C321B3203A68FEF7B8FC40F62C2193
:104480002348CDE900011F232A22C121EC20FEF799
:1044900013FD208829880096CDE901100123C3214E
:1044A0004FF49070BA68FEF7A1FC48F23044242320
:1044B0004FF4A072194601200094FEF75BFA44F213
:1044C000BF3040220090A0232D211046FEF752FA63
:1044D000B3234A46194614200094FEF74BFABDE870
:1044E000FF8700005C5200083060000826000020B2
:1044F00024000020B6C80000524800002C0A00200A
:10450000020B002084A500081404002084AD0008DC
:1045100084B500080A48032101603221416002216C
:1045200081601921C16041210161012101750548A6
:104530000021062241708170C27001714171704783
:10454000140400201C000020F8B50026264C012988
:1045500004D06670A178012903D043E00121617085
:10456000F8E761794FF6FF75C1F10101C9B26171D8
:10457000012806D002280FD003281DD0042831D1ED
:104580002AE0012902D000F031FC2BE0DB2363227A
:10459000C3213F2000950CE000F028FC6079012841
:1045A00002D000F0F9FC1DE0DB23BF22C321B320C1
:1045B0000095FEF761FA15E000F0EEFC6079012845
:1045C00002D000F019FB0DE0DB234FF49672C321FB
:1045D0004FF490700095ECE700F00EFB00F03AFC11
:1045E00000F0E6FDA670F8BD1C0000200748012180
:1045F0000022C17001718271C27105480271054AC1
:1046000082F870100421C170704700002C0A00204D
:104610001C000020020B002070B5FFF72DFC00F0FD
:1046200019FC0D4900250D4CC878032810D0A0793D
:10463000401CA071C870012008710949E070207108
:1046400081F8705084F80500FFF708FCA57070BD74
:10465000FFF7CCFFF8E700001C0000202C0A002028
:10466000020B002070B5FFF707FC1B4E1B4C00250A
:10467000307958B9207A401CC0B22072042800D981
:104680002572207A00F0D0FA00F092FDE07801283F
:104690001ED1F1781248012904D002290AD0032939
:1046A00016D10EE04168491D4160642910DB642188
:1046B00041600DE00168491C0160062901DB06210B
:1046C00001608168491C8160032901DB032181604D
:1046D000FFF7C4FBA57070BD1C0000202C0A002051
:1046E0001404002070B5FFF7C7FB1B4E1B4C0025C0
:1046F000307958B9607A401CC0B26072042800D981
:104700006572207AFFF7C0FB00F052FD2079012886
:104710001DD1F1781248012904D002290AD00329B9
:1047200015D10DE04168491F41600A290FDC0A21BB
:1047300041600CE00168491E0160002900DC056051
:104740008168491E8160012901DC01218160FFF738
:1047500085FBA57070BD00001C0000202C0A002005
:104760001404002010B5FFF787FB114CE079401CC2
:10477000C0B2E071022803D1FFF738FF00F018FD46
:10478000607901280CD10B48C078012804D0022898
:1047900002D0032804D108E000F00AFDFFF726FF4D
:1047A000FFF75CFB0020A07010BD00F009FAF3E7F2
:1047B0002C0A00201C000020064801210170C17055
:1047C00001710021417141708171C17101724172A9
:1047D000704700002C0A00202DE9F047364E642473
:1047E000364DB1784FF400784FF48079012917D114
:1047F00041462846FCF748FB074649462846FCF751
:1048000043FB47EA400780212846FCF73DFB47EA87
:10481000800740212846FCF737FB47EAC000C0B2BA
:10482000072806D00B2808D00D280AD00E2841D121
:104830000BE0BDE8F047FFF7EFBEBDE8F047FFF73C
:1048400051BFBDE8F047FFF70DBF41462846FCF7D2
:104850001BFB074649462846FCF716FB47EA40077C
:1048600080212846FCF710FB47EA800740212846B4
:10487000FCF70AFB47EAC000C7B2641EE4B20A2094
:10488000FFF772FC0E2F04D02CB1BDE8F047FFF704
:1048900069BF002CD9D1FFF7EFFA0948007928B990
:1048A0007078C0F10100707000F03CFBBDE8F0478B
:1048B000FFF7D4BABDE8F0872C0A002000100140B1
:1048C0001C000020FCF7F8FAFEF7B5FFFEF7E8FB46
:1048D000FEF7B0FBFEF7D0FDFEF758FBFEF7E8FD54
:1048E000FEF7DAFCFEF792FCFEF7B4FCFEF780FD63
:1048F000FEF7A0FDFEF748FD3048FBF719FD3048F4
:10490000FDF71CFA2F48FDF719FA2F48FDF716FAA4
:10491000002202212D48FCF7BCFA2D480025C57065
:104920004570011D01222B48FDF756FFFEF7E4F804
:10493000FFF773FA4B22C8231146322000F06CFABD
:10494000462000F03BFA4FF6FF70FDF7E7FFFFF758
:10495000A9FC00F02DFCFFF72FFFFFF7DBFDFFF7B1
:10496000C7FC1D4C01201D4F84F86F5084F8700067
:1049700084F87400DFF868801A4D1B4EFEF7B6FD10
:104980003979F878FFF7E0FD94F87400012801D137
:10499000FFF722FF00F068FA20214046FCF774FA86
:1049A000687531788842E9D0012904D000F000FC14
:1049B000687D3070E2E700F0B5FAF9E730000020DA
:1049C000240200206C020020B402002000080140F4
:1049D000360A002044030020020B00201C000020A7
:1049E0000010014014040020000000200A4610B509
:1049F00001464FF47A730548FDF720FF034800682D
:104A00000168C9434906FBD410BD000044030020DF
:104A100010B5204886B0002480F8704001220221A1
:104A20001D48FCF736FA0520FFF79EFB17208DF88E
:104A3000000010208DF801008DF8044002208DF850
:104A4000050004208DF8060014488DF802408DF80A
:104A500003408DF807408DF8084000798DF8090073
:104A600005208DF80A000B216846FEF775FA010A49
:104A70008DF80B108DF80C000D2269460548FBF7E8
:104A800075FB0D210348FFF7B1FF6420FFF76CFBB6
:104A900006B010BD020B00200008014014040020E5
:104AA00010B5204886B0002480F870400122022111
:104AB0001D48FCF7EEF90520FFF756FB18208DF88E
:104AC000000010208DF801008DF8044002208DF8C0
:104AD000050004208DF8060014488DF802408DF87A
:104AE00003408DF807408DF8084000798DF80900E3
:104AF00005208DF80A000B216846FEF72DFA010A01
:104B00008DF80B108DF80C000D2269460548FBF757
:104B10002DFB0D210348FFF769FF6420FFF724FBFD
:104B200006B010BD020B0020000801401404002054
:104B300010B5204886B0002480F870400122022180
:104B40001D48FCF7A6F90520FFF70EFB19208DF88C
:104B5000000010208DF801008DF8044002208DF82F
:104B6000050004208DF8060014488DF802408DF8E9
:104B700003408DF807408DF8084000798DF8090052
:104B800005208DF80A000B216846FEF7E5F9010AB9
:104B90008DF80B108DF80C000D2269460548FBF7C7
:104BA000E5FA0D210348FFF721FF6420FFF7DCFA47
:104BB00006B010BD020B00200008014014040020C4
:104BC0000C4810B5816801290BD002290DD0502165
:104BD00041600621016000F0DFF9BDE8104000F0FF
:104BE00005B91E2141600321F4E73221416004210F
:104BF000F0E70000140400200EB5084A0849182008
:104C0000128809888DE8070006480123C3218268BD
:104C10004FF49070FEF7EAF80EBD00002600002069
:104C200024000020140400202DE9FC41604A0021EA
:104C3000614F51725F4A07F5306540F2AC514FF455
:104C4000B06402F2AC5302F65836A5F5B0680528F8
:104C50007DD2DFE800F0032645628700CDE9002120
:104C60001623212237211020FEF726F9CDE9007402
:104C70001623202261211020FEF71EF9CDE90054F1
:104C8000162320228A211020FEF716F90520FFF7AF
:104C90008FF90520FFF7FAF9BDE8FC410020FFF786
:104CA00019B9CDE900311623212237211020FEF752
:104CB00003F9CDE900641623202261211020FEF7BC
:104CC000FBF8CDE90054162320228A211020FEF79C
:104CD000F3F80520FFF7FEF80520FFF7D7F93CE0D1
:104CE000CDE900311623212237211020FEF7E4F808
:104CF000CDE900741623202261211020FEF7DCF894
:104D0000CDE90084162320228A211020FEF7D4F852
:104D10000520FFF7DFF8052040E0CDE9002116234C
:104D2000212237211020FEF7C7F8CDE900641623B1
:104D3000202261211020FEF7BFF8CDE90054162390
:104D400020228A211020FEF7B7F8052000E02CE091
:104D5000FFF79CF90020FFF7BDF8BDE8FC410020FB
:104D6000FFF726B9CDE90021162321223721102093
:104D7000FEF7A2F8CDE9006416232022612110205D
:104D8000FEF79AF8CDE90084162320228A2110200C
:104D9000FEF792F80020FFF79DF80020FFF708F9D2
:104DA000BDE8FC410020FFF771B9BDE8FC810000BF
:104DB0002C0A00205C7400083485000810B504003B
:104DC00008480BD0FCF7BAFFC4F1640053214843F4
:104DD0000A2190FBF1F00449488010BDBDE8104065
:104DE000FCF7E2BFB4020020280000200EB5074AFD
:104DF00007491820128809888DE807000548032311
:104E0000C32142683F20FDF7F1FF0EBD26000020C0
:104E1000240000201404002070B50C4CB4FBF3F304
:104E20000B4C5B1E2568EB6258436425B0FBF5F024
:104E30002668B0635943B1FBF5F02168C8635A4353
:104E4000B2FBF5F02168086470BD000040420F001D
:104E5000DC01002010B5FFF7C9FF00F09DF8BDE8A8
:104E60001040FFF7C9BE00002DE9FE432848294C39
:104E70004FF00008007918B184F87080BDE8FE8317
:104E800094F86F000128F9D194F870000128F5D149
:104E9000FFF7EEF9204D214E102728883188009722
:104EA000CDE901104FF4877914F8602F03233921DD
:104EB0004846FDF79BFF288831880097CDE901100F
:104EC0006278032363214846FDF790FF28883188E4
:104ED0000097CDE90110A27803238D214846FDF704
:104EE00085FF14F860290E4940F2926022B194F8CF
:104EF00061200AB101F29261CDE900101D231A462A
:104F000003216120FDF7D8FF84F86F80B6E7000029
:104F10001C000020020B002026000020240000209E
:104F2000386700081CB51448407801280CD04FF6AB
:104F3000FF7000902123552203213720FDF79CFDAF
:104F4000BDE81C4000F034B94FF4E1610B48CDE9F5
:104F500000011E231A4603213720FDF7ADFF084844
:104F6000407D002807D1FFF753FDFFF799FDBDE80D
:104F70001C40FFF7DDBD1CBD2C0A0020285900088D
:104F800014040020034801780029FCD0002101709E
:104F900070470000220000200EB5074A074918207C
:104FA000128809888DE8070005480123C32102689B
:104FB000B320FDF71BFF0EBD2600002024000020BB
:104FC0001404002070B5244E244D86B0707810B1C2
:104FD000687D01283DD122480024012280F87040DC
:104FE00002212048FBF755FF0520FFF7BDF81720E9
:104FF0008DF8000010208DF801008DF8044002208B
:105000008DF8050004208DF802408DF806008DF81B
:1050100003408DF8074028788DF8080028798DF82E
:105020000900707A8DF80A000B216846FDF794FF9D
:10503000010A8DF80B108DF80C000D226946084806
:10504000FBF794F80D210648FFF7D0FC6420FFF72A
:105050008BF806B070BD00002C0A0020140400205C
:10506000020B00200008014070B5244E244D86B08C
:10507000707810B1687D01283DD1224800240122BA
:1050800080F8704002212048FBF703FF0520FFF75E
:105090006BF818208DF8000010208DF801008DF8B5
:1050A000044002208DF8050004208DF802408DF8A0
:1050B00006008DF803408DF8074028788DF8080029
:1050C00028798DF80900707A8DF80A000B2168465E
:1050D000FDF742FF010A8DF80B108DF80C000D2230
:1050E00069460848FBF742F80D210648FFF77EFCA9
:1050F0006420FFF739F806B070BD00002C0A0020CC
:1051000014040020020B00200008014070B5244E5A
:10511000244D86B0707810B1687D01283DD12248B9
:105120000024012280F8704002212048FBF7B1FEE4
:105130000520FFF719F819208DF8000010208DF8D0
:1051400001008DF8044002208DF8050004208DF840
:1051500002408DF806008DF803408DF8074028784E
:105160008DF8080028798DF80900707A8DF80A000A
:105170000B216846FDF7F0FE010A8DF80B108DF843
:105180000C000D2269460848FAF7F0FF0D21064889
:10519000FFF72CFC6420FEF7E7FF06B070BD0000AF
:1051A0002C0A002014040020020B002000080140FB
:1051B00010B50520FEF7D8FF174C002084F87400C6
:1051C0001648007A052822D2DFE800F003080F16FF
:1051D0001B00FFF7F7FEFFF763FC03E0FFF744FF58
:1051E000FFF716FCFFF7A4FC11E0FFF78FFFFFF7B6
:1051F00057FCFFF70DFC0AE0FFF7E4FEFFF734FF72
:10520000F0E7FFF7DFFEFFF72FFFFFF77FFF01203B
:1052100004F8700F207110BD020B00202C0A002032
:10522000010202030405060708090A0B0C0D0E0F04
:105230001010010202030405060708090A0B0C0DF1
:105240000E0F101000000000000000000102030417
:10525000060708090000000001020304FFFFFFFF2A
:10526000FFFFFFFFFFFFFFFFFFFFFFFFFFFEFFFF4F
:10527000FFFFFFFFFFFFFFFFFFFFFFFFFFDFFFDF7E
:10528000F7FFFFFFFFDFFFFFF7FFFFFFFFFFFFFF5E
:10529000FFFFFFFFFFFFFFFFFFFFFFFFFFFFFFFF1E
:1052A000FFFFFFFFFFFFFFFFFFFFFFFFFFFFFFFF0E
:1052B000FFFFFFFFF7FFF7FFFFFFFFFEF7FEFFDF38
:1052C000FFDFFFFFFFFFFFFFFFFFFFFFFFFFFFFF0E
:1052D000FFFFFFFFFFFFFFFFFFFFFFFFFFFFFFFFDE
:1052E000FFFFFFFFFFFFFFFFFFFFFFFFFFFFFFFFCE
:1052F000FFFEFFDFFFFFFFFFFFFFFFFFFFFFFFFFDF
:10530000FFFFFFFFFFFFFFFFFFFFFFFFFFFFFFFFAD
:10531000FFFFFFFFFFFFFFFFFFFFFFFFFFFFFFFF9D
:10532000FFFFFFFFFFDFFFDFFFFFFFFFFFFFFFDFED
:10533000FFFFFFFFFFFFFFDFFFFFFFFFFFFFFFFF9D
:10534000FFFFFFFFFFFFFFFFFFFFFFFFFFFFFFFF6D
:10535000FFFFFFFFFFFFFFFFFFFFFFFFFFFFFFDF7D
:10536000FFFFFFFFFFFFFFDFFFDEFFFFFFFFF7FF96
:10537000F7FEFFFFFFFFFFFFFFFFFFFFFFFFFFFF46
:10538000FFFFFFFFFFFFFFFFFFFFFFFFFFFFFFFF2D
:10539000FFFFFFFFFFDFFFFFFFFFFFFFFFFFFEBD80
:1053A000E31AD1B9D999DA19EC3BFF9FFFFFFFFF50
:1053B000FFFFFFFFFFFFFFFFFFFFFFFFFFFFFFFFFD
:1053C000FFFFFFFFFFFFFFFFFFFFFFFFFFFFFFFFED
:1053D000FFFFF7FFFF7FFDDEE1F8D1D9D279F4BD01
:1053E000DAD8D978D278FF7FFFFFFFFFFFFFFFFFFA
:1053F000FFFFFFFFFFFFFFFFFFFFFFFFFFFFFFFFBD
:10540000FFFFFFFFF7FFFFFFFFFFFFFEFFFFF5BD01
:10541000D1D6D219F65DFFFFFFDFFFFEFD3DC9B813
:10542000EBFCFFFFFFFFFFFFFFFFFFFFFFFFFFFFA3
:10543000FFFFFFFFFFFFFFFFFFFFFFFFFFFFFFDF9C
:10544000FFFFFFDEFFFEED9CD998DA19FEDDFFDFDE
:10545000FFFEFFFFFFFFFFFFE359D999FFDFFFFFCB
:10546000FFFFFFFFFFFFFFFFFFFFFFFFFFFFFFFF4C
:10547000FFFFFFFFFFFFFFFFFFFEFFFFFFFFEDBD91
:10548000D1F8D218FE9DFFFFFFFFFFDFF7FFFFFF00
:10549000FFDFEC9CD1B8E6DCFFDFFFFFFFFFFFFF83
:1054A000FFFFFFFFFFFFFFFFFFFFFFFFFFFFFFFF0C
:1054B000FFFFFFDFFFFFFFFEF5DDD2D9FEDEFFFFBE
:1054C000FFFFFD9EFEFFFFDFFFFEFFFFEC5BD1B79E
:1054D000EEFCFFFFFFFFFFFFFFFFFFFFFFFFFFFFF0
:1054E000F7FEFFFFFFFFFFFFFFFFFFFEFFDFFFFFF6
:1054F000FFFFFFFFFFFFFFDFFFFFDC3AD1B8ECFB50
:10550000FFFFFFFEF77FE23AD298FFDFFFFFFFFFCA
:10551000FFFFFFFFFFFFFFFFFFFFFFFFFFFFFFFF9B
:10552000FFFFFFFEFFFFEE7EEDBDFFDFFFFFFFFF92
:10553000FFFEE41AE198DAB9FF7EFFFFFF9FE2B9B0
:10554000D998FDDDFFFFFFFFFFFFFFFFFFFFFFFF1C
:10555000FFFFFFFFFFFFFFFFFFFFF7FFFFFFEDDC98
:10556000D1D9DB59FFFFFFFFFFFEEC1BD999DAF71A
:10557000FF9FFFFFF79FEA9BD1F8E43AFFFFFFFF91
:10558000FFFFFFFFFFFFFFFFFFFFFFFFFFFFFFFF2B
:10559000FFFFF7FFFF7FFDBDD1B8E1F8F6BFFFFFCA
:1055A000F7FEEC1AC9B8EABAFF7FFFFFFFBFD2F9D6
:1055B000D1B7E3FBFFFEFFFFFFFFFFFFFFFFFFFF92
:1055C000FFFFFFFFFFFFFFFFFFFFFFFEFFFFFDBD30
:1055D000D1D5D1F8FEBEFFFFFFFFE3FAE19AE2B8B2
:1055E000FFBEFFFFFFBFE399C9D8F3FBFFDFFFFE5C
:1055F000FFFFFFFFFFFFFFFFFFFFFFFFFFFFFFFFBB
:10560000FFFEFFFFFFFFF65DE197D219F6DCFFFF1B
:10561000FFFFE3FAD1B9DAD8FFBFFFDFFFFFFFBF1B
:10562000DBF8F4BBFFDFFFFFFFFFFFFFFFFFFFFF24
:10563000FFFFFFFFFFFFF7FFFFDFFFDFFFFFFFFFC2
:10564000DAFAC9D7FEBEFFFFF7FFFE5FD9B7D2DA9D
:10565000FF7FFFDEFFFFFFFFF7FFFF9FFFFFFFDF83
:10566000FFDFF7FEFFFFFFFFFFFFFFFFFFFFFFFF73
:10567000FFFEFFFFFFFFF7DFFF3FD198EBFBFFFFD0
:10568000FFFFFFFEF73FEC1AF7BEFFFFF79FE4397D
:10569000FEDEF7FFFFFFF7FEF7FFFFDFFFFFFFFF75
:1056A000FFFFFFFFFFFFFFFFFFFFFFFEF7FFFFFE14
:1056B000FFFFF65DD1B7ED1CFFDFFFDFFFFFFFFF50
:1056C000FFDFF7FFFF5EDAFAD1B7F61DFFFFFFBE7F
:1056D000FFDFFFFFFFBFFFDFFFFFFFFFFFFFFFFF5A
:1056E000FFFFFFFFFFFFFFFFF7FEFFFFFF3ED99920
:1056F000EC5BF7FEFFFFF7FFF7FEFFFEFF9FE29B6D
:10570000D1D7ED1EFFDFFFFFFFDFFFFFFFFFFFFF32
:10571000FFFFFFDFFFFFFFFFFFFFFFFFFFFFFFDFD9
:10572000FFFFF7FFFFFFFFFFDA79E219FE3FFFDE21
:10573000FFFFFFFFFF1FDABAE197E3DAFFFFF7FF92
:10574000FFFFFFFFFFFFFFFFFFFFFFFFFFDFFFFF89
:10575000FFFFFFFFFFFFFFFFFFFFFFFFFFFFFFDF79
:10576000FFFEFE5ED1F7C9B7E2D9ECFDEBBAD198E6
:10577000D1B8E49BFFFFFFFFFFFFFFFFFFFFFFFF2D
:10578000FFFFFFDFFFFFFFDFFFFFFFFFFFFFFFFF69
:10579000FFFFFFFEFFDFFFFFFFFFFFFFF7FEF5DE6E
:1057A000E279D1D8D978D1B8DA37F59DFFFFFFFF7C
:1057B000FFFFFFFFFFFFFFFFFFFEFFFFFFFFFFDF1A
:1057C000FFFFFFFFFFFFFFFFFFFFFFFFFFFFFFFFE9
:1057D000FFFFFFFFFFFFFFFFFFFFFFFFFE9EE5DB79
:1057E000E65CFF7FFFDFFFFFFFFFFFFFFFFFFFFF25
:1057F000FFFFFFFFFFFFFFFFFFFFFFFFFFFFFFFFB9
:10580000FFFFFFFFFFFFFFFFFFFFFFFFFFFFFFFFA8
:10581000FFFFFFFFFFFFFFDFFFDFFFDFFFFFFFFFF8
:10582000FFFFFFFFFFFFFFFFFFFFFFFFFFFFFFFF88
:10583000FFFFFFFFFFFFFFFFFFFFFFFFFFFFFFFF78
:10584000FFFFFFFFFFFFFFFFFFFFFFFFFFFFFFFF68
:10585000F7FFFFFFFFFFFFFFFFFFFFFFFFFFFFFF60
:10586000FFFFFFFFFFFFFFFFFFFFFFFFFFFFFFFF48
:10587000FFFFFFFFFFFFFFFFFFFFFFFFFFFFFFFF38
:10588000FFFFFFFFFFFFFFFFFFFFFFFFFFFFFFFF28
:10589000FFFFFFFFFFFFFFDFFFFFFFFFFFFFFFFF38
:1058A000FFFFFFFFFFFFFFFFFFFFFFFFFFFFFFFF08
:1058B000FFFFFFFFFFFFFFFFFFFFFFFFFFFFFFFFF8
:1058C000FFFFFFFFFFFFFFFFFFFFFFFFFFFFFFFFE8
:1058D000FFFFFFFFFFFFFFFFFFFFFFFFFFFFFFFFD8
:1058E000FFFFFFFFFFFFFFFFFFFFFFFFFFFFFFFFC8
:1058F000FFFFFFFFFFFFFFFFFFFFFFFFFFFFFFFFB8
:10590000FFFFFFFFFFFFFFFFFFFFFFFFFFFFFFFFA7
:10591000FFFFFFFFFFFFFFFFFFFFFFFFFFFFFFFF97
:10592000FFFFFFFFFFFFFFFFFFFFFFFFFFFFFFFF87
:10593000FFFFFFFFFFFFFFFFFFFFFFFFFFFFFFFF77
:10594000FFFFFFFFFFFFFFFFFFFFFFFFFFFFFFFF67
:10595000FFFFFFFFFFFFFFFFFFFFFFFFFFFFFFFF57
:10596000FFFFFFFFFFFFFFFFFFFFFFFFFFFFFFFF47
:10597000FFFFFFFFFFFFFFFFFFFFFFFFFFFFFFFF37
:10598000FFFFFFFFFFFFFFFFFFFFFFFFFFFFFFFF27
:10599000FFFFFFFFFFFFFFFFFFFFFFFFFFFFFFFF17
:1059A000FFFFFFFFFFFFFFFFFFFFFFDFFFFFFFFF27
:1059B000FFFFFFFFFFFFFFFFFFFFFFFFFFFFFFFFF7
:1059C000FFFFFFFFFFFEFFFEFFFFFFFFFFFFFFFEEA
:1059D000FFFFFFFFFFFFFFFFFFFFFFFFFFFFFFFFD7
:1059E000FFFFFFFFFFFFFFFFFFFFFFFFFFDFFFDF07
:1059F000FFFFFFFFFFFEFFFFFFFFFFDFFFFFFFDFF8
:105A0000FFDFFFDFFFFFFFFFFFFFFFFFFFFFFFFFE6
:105A1000FFFFFFFFFFFFFFFFFFFFFFFFFFFFFFFF96
:105A2000FFFFFFFFFFFFFFFFFFFFFFFFFFFFFFFF86
:105A3000FFFFFFFFFFDFFFFEFFFEFFFFFFFFFFDFB8
:105A4000FFFFF7FFFFFFFFFFFFFFFFFFFFFFFFFF6E
:105A5000FFFFFFFFFFFFFFFFFFDFFFFFFFFFFFFF76
:105A6000FFFFFFFFFFFFFFFFFFFFFFDFF61DEC9CC7
:105A7000EBFBE31AE45CE55CFF3EFFFFFFFFFFFF8B
:105A8000FFBFFFDFFFFFFFFFFFFFFFFFFFFFFFFF86
:105A9000FFFFFFFFFFFFFFFFFFFFFFFFFFFFFFFF16
:105AA000FFFDFFDFE4FCD218D9B8C9D8C9D8D9B9ED
:105AB000D199D999D1B7E359FE3EFFFFF7FFFFFF18
:105AC000FFFFFFFFFFFFFFFFFFFFFFFFFFFFFFFFE6
:105AD000FFFFFFFFFFFFFFFFFFFFFFFFFEFFD338CA
